:020000040800F2
:1000000000000120C10C0008090B0008110B0008BA
:10001000190B0008210B0008290B00080000000044
:10002000000000000000000000000000310B00088C
:100030003D0B000800000000490B0008550B0008AC
:10004000110D0008110D0008110D0008110D000818
:10005000110D0008110D0008110D0008110D000808
:10006000110D0008110D0008110D0008610B0008AA
:10007000110D0008110D0008110D0008110D0008E8
:10008000110D0008110D0008110D0008110D0008D8
:10009000110D0008110D0008110D0008110D0008C8
:1000A000110D0008110D0008110D0008110D0008B8
:1000B000110D0008110D0008110D0008110D0008A8
:1000C000110D0008110D0008110D0008110D000898
:1000D000110D0008110D0008110D0008110D000888
:1000E000110D0008110D0008110D0008110D000878
:1000F000110D0008110D0008110D0008110D000868
:10010000110D0008110D0008110D0008110D000857
:10011000110D0008110D0008110D0008110D000847
:10012000110D0008110D0008110D0008110D000837
:08013000110D0008110D00087B
:1001400010B5054C237833B9044B13B10448AFF311
:1001500000800123237010BD680000200000000013
:10016000E458000808B5034B1BB103490348AFF33B
:10017000008008BD000000006C000020E45800086A
:1001800001F0FF01102A2BDB10F0070F08D010F848
:10019000013B013A8B422DD010F0070F42B3F6D14C
:1001A000F0B441EA012141EA014122F007047FF065
:1001B00000070023F0E80256083C85EA010586EABC
:1001C000010685FA47F5A3FA87F586FA47F6A5FAF8
:1001D00087F68EB9EED1F0BC01F0FF0102F0070204
:1001E00032B110F8013B013A83EA010313B1F8D1AF
:1001F0000020704701387047002D06BF3546033890
:10020000073815F0010F07D1013015F4807F02BFC8
:10021000013015F4C03F0130F0BC0138704700BF19
:1002200053B94AB9002908BF00281CBF4FF0FF315D
:100230004FF0FF3000F06AB9ADF1080C6DE904CE63
:1002400000F006F8DDF804E0DDE9022304B07047B1
:100250002DE9F047089D0C46002B4ED194468C4565
:100260008646B2FA82F262D94AB1C2F120039140C5
:1002700020FA03F30CFA02FC194300FA02FE4FEADB
:100280001C471FFA8CF6B1FBF7F44FEA1E4307FB3D
:10029000141143EA014304FB06F199420AD91CEB0D
:1002A000030304F1FF3080F01281994240F20F8184
:1002B000023C6344591A1FFA8EF3B1FBF7F007FBB7
:1002C000101143EA014300FB06F69E420AD91CEBDB
:1002D000030300F1FF3180F0FC809E4240F2F98080
:1002E000634402389B1B40EA044000211DB1D34007
:1002F0000022C5E90032BDE8F0878B4205D90DB177
:10030000C5E9000100210846F5E7B3FA83F10029A9
:1003100046D1A34202D39042C0F0F080861A64EB2B
:1003200003030120002DE6D0C5E90063E3E7002ABE
:1003300040F09080A1EB0C044FEA1C481FFA8CF7A8
:100340000121B4FBF8F64FEA1E4308FB164443EACA
:10035000044307FB06F0984208D91CEB030306F19F
:10036000FF3402D2984200F2CD8026461C1A1FFAB2
:100370008EF3B4FBF8F008FB104443EA044300FB9F
:1003800007F79F4208D91CEB030300F1FF3402D2A8
:100390009F4200F2B0802046DB1B40EA0640A5E702
:1003A000C1F120068B4022FA06F71F4320FA06FC13
:1003B00004FA01F343EA0C03F44000FA01F8380CA4
:1003C0004FEA1349B4FBF0FE1FFA87FC00FB1E4402
:1003D00049EA04440EFB0CF9A14502FA01F20AD9DC
:1003E0003C190EF1FF3A80F08480A14540F28180F3
:1003F000AEF1020E3C44A4EB09041FFA83F9B4FBEE
:10040000F0F300FB134449EA044403FB0CFCA4454D
:1004100007D93C1903F1FF3067D2A44565D9023BE7
:100420003C4443EA0E40A0FB0293A4EB0C049C4224
:10043000CE469C4651D34ED055B1B8EB0E0364EB7B
:100440000C0404FA06F6CB401E43CC40C5E9006418
:10045000002150E7C2F1200320FA03F10CFA02FC5C
:1004600024FA03F394400C434FEA1C4800FA02FEBE
:100470001FFA8CF7B3FBF8F008FB1031230C43EAAA
:10048000014300FB07F1994208D91CEB030300F17B
:10049000FF362CD299422AD9023863445B1AA4B29F
:1004A000B3FBF8F108FB113344EA034401FB07F303
:1004B000A34208D91CEB040401F1FF3613D2A34276
:1004C00011D902396444E41A41EA004139E704468B
:1004D000F0E6084606E7C845AED2B9EB020E63EB7C
:1004E000070C0138A8E73146EDE7034699E73046A7
:1004F000D4E7D6467FE7634402384DE706462346F5
:1005000008460FE7023E634430E700BF704700BF74
:1005100080B485B000AF78604FF0B0439A6C4FF074
:10052000B0417B6813438B644FF0B0439A6C7B6897
:100530001340FB60FB6800BF1437BD4680BC7047AA
:1005400080B485B000AF78604FF0B043DA6C4FF004
:10055000B0417B681343CB644FF0B043DA6C7B68E7
:100560001340FB60FB6800BF1437BD4680BC70477A
:1005700080B500AF00F0CEFB00F026F800F040F9A7
:1005800000F02CF900F076F800F0DCF80B4B0022BC
:100590001A604FF4D0420A490A4800F037FF074B6F
:1005A0001B68012BFBD1054B00221A604FF4D0428F
:1005B0000349044800F02AFFF1E700BFDCD1002026
:1005C000DC0100208400002080B59AB000AF07F164
:1005D000200348220021184604F030FB3B1D002276
:1005E0001A605A609A60DA601A615A619A61204B07
:1005F0001B6823F4C0631E4A43F4007313601C4B52
:100600001B6803F4C0633B603B6822233B624FF4EA
:1006100080733B6301233B6440237B6300237B6443
:10062000A023BB640023FB6407F12003184602F0FB
:100630004DFB0346002B01D000F068F94F237B608F
:100640000023BB600023FB6000233B6100237B6130
:100650000023FB613B1D0121184602F0B9FE034651
:10066000002B01D000F052F900BF6837BD4680BDB5
:100670000004005880B584B000AF3B1D00221A6012
:100680005A609A602C4B2D4A1A602B4B4FF4E012A3
:100690005A60294B00229A60274B0022DA60264BD1
:1006A00000221A61244B04225A61234B00221A763D
:1006B000214B00225A76204B01229A761E4B0122B2
:1006C000DA611D4B002283F820201B4B00225A6266
:1006D000194B00229A62184B012283F82C20164BEA
:1006E00000221A63144B03225A63134B00229A63AD
:1006F000114B002283F83C200F4B0022DA640E4895
:1007000000F0F0FC0346002B01D000F0FFF80C4B8A
:100710007B600023BB600023FB603B1D194606483D
:1007200000F06CFF0346002B01D000F0EFF800BF93
:100730001037BD4680BD00BF84000020002401406A
:100740000800000C80B500AF224B234A1A60214BF1
:100750004FF461225A601F4B00229A601D4B002209
:10076000DA601C4B00221A611A4B0C225A61194B99
:1007700000229A61174B0022DA61164B00221A629E
:10078000144B00225A62134B00229A62114803F064
:100790001AFB0346002B01D000F0B8F800210D48E9
:1007A00004F051F80346002B01D000F0AFF800210F
:1007B000084804F086F80346002B01D000F0A6F8A4
:1007C000044804F008F80346002B01D000F09EF81E
:1007D00000BF80BD480100200038014080B500AF57
:1007E0000420FFF795FE0120FFF792FE0022002172
:1007F0000B2001F0CAFA0B2001F0E1FA00BF80BD26
:1008000080B586B000AF3B1D00221A605A609A6026
:10081000DA601A610220FFF793FE002220210A48C5
:1008200001F06AFF20237B600123BB600023FB6093
:1008300000233B613B1D1946034801F0FDFD00BF4D
:100840001837BD4680BD00BF0004004880B582B0A7
:1008500000AF7860391D4FF6FF730122034803F0A3
:1008600002FB7B6818460837BD4680BD4801002062
:1008700080B582B000AF7860012220210A4801F0E3
:100880003BFF0A4A4FF4D041094800F013F8002218
:100890002021054801F030FF786800F03DFE00BFE0
:1008A0000837BD4680BD00BF00040048DCD10020F1
:1008B000DC01002080B586B000AFF860B9607A60D6
:1008C0000F4804F0B3F900237B610BE07B695B0008
:1008D000FA6813441B8819460A4804F03FF97B69FB
:1008E00001337B617B69BA689A42EFD8064804F00D
:1008F0009DF97B6801221A6000BF1837BD4680BD94
:10090000FC580008045900080C59000880B400AFD6
:1009100072B600BF00BFFDE780B485B000AF78605D
:100920004FF0B043DA6C4FF0B0417B681343CB64B7
:100930004FF0B043DA6C7B681340FB60FB6800BF8C
:100940001437BD4680BC704780B485B000AF786076
:100950004FF0B0431A6E4FF0B0417B6813430B6603
:100960004FF0B0431A6E7B681340FB60FB6800BF1A
:100970001437BD4680BC704780B400AF00BFBD4691
:1009800080BC704780B596B000AF786007F1440333
:1009900000221A605A609A60DA601A6107F10C034B
:1009A00038220021184604F049F97B681B682F4A59
:1009B000934256D14FF48043FB604FF08053BB63AA
:1009C00007F10C03184603F0C3F80346002B01D0CF
:1009D000FFF79CFF4FF40070FFF7B6FF0220FFF710
:1009E0009BFF10237B640323BB640023FB6407F19C
:1009F000440319461E4801F01FFD1E4B1E4A1A6093
:100A00001C4B05225A601B4B00229A60194B002296
:100A1000DA60184B80221A61164B4FF480725A61CB
:100A2000144B4FF480629A61124B0022DA61114B31
:100A300000221A620F4801F0DDF90346002B01D0B5
:100A4000FFF764FF10210B4801F01EFC0346002B4A
:100A500001D0FFF75BFF7B68064A1A65054A7B6891
:100A6000936200BF5837BD4680BD00BF00240140DF
:100A700000040048E80000200800024080B596B05D
:100A800000AF786007F1440300221A605A609A6050
:100A9000DA601A6107F10C0338220021184604F0CD
:100AA000CDF87B681B68164A934225D10123FB6071
:100AB0004FF440333B6107F10C03184603F048F84C
:100AC0000346002B01D0FFF721FF4FF48040FFF7D2
:100AD0003BFF0220FFF720FFC0237B640223BB649F
:100AE0000023FB6400233B6507237B6507F1440378
:100AF0001946044801F0A0FC00BF5837BD4680BD30
:100B0000003801400004004880B400AF00BFFDE79A
:100B100080B400AF00BFFDE780B400AF00BFFDE7C9
:100B200080B400AF00BFFDE780B400AF00BFFDE7B9
:100B300080B400AF00BFBD4680BC704780B400AF3A
:100B400000BFBD4680BC704780B400AF00BFBD464B
:100B500080BC704780B500AF00F036F900BF80BDA3
:100B600080B500AF024801F0C9FA00BF80BD00BFE8
:100B7000E800002080B586B000AFF860B9607A6008
:100B800000237B610AE0AFF300800146BB685A1C7A
:100B9000BA60CAB21A707B6901337B617A697B687B
:100BA0009A42F0DB7B6818461837BD4680BD80B599
:100BB00086B000AFF860B9607A6000237B6109E01D
:100BC000BB685A1CBA601B781846FFF73FFE7B696A
:100BD00001337B617A697B689A42F1DB7B68184656
:100BE0001837BD4680BD80B483B000AF78604FF049
:100BF000FF3318460C37BD4680BC704780B483B0C5
:100C000000AF786039603B684FF400525A600023AF
:100C100018460C37BD4680BC704780B483B000AF27
:100C20007860012318460C37BD4680BC704780B4FD
:100C300085B000AFF860B9607A60002318461437B9
:100C4000BD4680BC7047000080B586B000AF7860BC
:100C5000144A154BD31A7B617B693B61134B1B68AC
:100C6000002B02D1114B124A1A60104B1A687B6894
:100C700013443A699A4207D203F0E8FF03460C2274
:100C80001A604FF0FF3309E0084B1B68FB60074B0D
:100C90001A687B681344054A1360FB6818461837C6
:100CA000BD4680BD0000012000040000E0D100200E
:100CB00038D3002080B400AF00BFBD4680BC704771
:100CC0000D488546FFF7F6FF0C480D490D4A0023F5
:100CD00002E0D458C4500433C4188C42F9D30A4AF1
:100CE0000A4C002301E013600432A242FBD303F05C
:100CF000B3FFFFF73DFCFEE70000012000000020ED
:100D000068000020385A00086800002034D3002012
:100D1000FEE7000080B582B000AF0023FB71032026
:100D200001F028F802F036FD0346094A13600F204F
:100D300000F010F80346002B02D00123FB7101E004
:100D4000FFF71AFEFB7918460837BD4680BD00BF85
:100D50000000002080B584B000AF78600023FB73F2
:100D6000174B1B78002B24D002F014FD0246144BC5
:100D70001B7819464FF47A73B3FBF1F3B2FBF3F32C
:100D8000184601F02AF80346002B0FD17B680F2B81
:100D900009D8002279684FF0FF3000F0F6FF094AC9
:100DA0007B68136007E00123FB7304E00123FB73FE
:100DB00001E00123FB73FB7B18461037BD4680BD65
:100DC000080000200400002080B400AF054B1B7811
:100DD0001A46054B1B681344034A136000BFBD4607
:100DE00080BC704708000020E4D1002080B400AF30
:100DF000024B1B681846BD4680BC7047E4D10020FA
:100E000080B483B000AF786039607B681B6823F0E2
:100E1000E0723B681A437B681A6000BF0C37BD461E
:100E200080BC704780B483B000AF78607B681B687B
:100E300003F0E07318460C37BD4680BC704780B4A1
:100E400085B000AFF860B9607A60FB685A69BB682A
:100E500003F00403072101FA03F3DB431A40BB68E4
:100E600003F00403796801FA03F31A43FB685A613B
:100E700000BF1437BD4680BC704780B483B000AF5C
:100E8000786039607B685A693B6803F00403072186
:100E900001FA03F31A403B6803F0040322FA03F358
:100EA00018460C37BD4680BC704780B483B000AF95
:100EB00078607B68DB6803F44063002B01D1012379
:100EC00000E0002318460C37BD4680BC704780B454
:100ED00085B000AFF860B9607A60FB689A6ABB6859
:100EE00003F01F030F2101FA03F3DB431A407B6871
:100EF0009B0E03F00F01BB6803F01F0301FA03F31D
:100F00001A43FB689A6200BF1437BD4680BC704725
:100F100080B483B000AF786039607B689A6A3B68C0
:100F2000C3F311031A437B689A6200BF0C37BD46B6
:100F300080BC704780B483B000AF786039607B6854
:100F40009A6A3B68C3F31103DB431A407B689A62D9
:100F500000BF0C37BD4680BC704780B485B000AF81
:100F6000F860B9607A60FB685A69BB681B02DB43B2
:100F70001A40BB6819027B680B4023F07C4323F0C6
:100F8000FF031A43FB685A6100BF1437BD4680BC9B
:100F9000704780B483B000AF78607B689B6823F0B3
:100FA000104323F0170343F080527B689A6000BF20
:100FB0000C37BD4680BC704780B483B000AF78600A
:100FC0007B689B6803F08053B3F1805F01D10123FC
:100FD00000E0002318460C37BD4680BC704780B443
:100FE00083B000AF78607B689B6823F0004323F0F8
:100FF000170343F001027B689A6000BF0C37BD46BF
:1010000080BC704780B483B000AF78607B689B6819
:1010100023F0004323F0170343F002027B689A6039
:1010200000BF0C37BD4680BC704780B483B000AFB2
:1010300078607B689B6803F00103012B01D10123D9
:1010400000E0002318460C37BD4680BC704780B4D2
:1010500083B000AF78607B689B6803F00203022BCB
:1010600001D1012300E0002318460C37BD4680BCA7
:10107000704780B483B000AF78607B689B6823F0D2
:10108000004323F0170343F004027B689A6000BF1B
:101090000C37BD4680BC704780B483B000AF786029
:1010A0007B689B6823F0004323F0170343F0100292
:1010B0007B689A6000BF0C37BD4680BC704780B427
:1010C00083B000AF78607B689B6803F00403042B57
:1010D00001D1012300E0002318460C37BD4680BC37
:1010E0007047000080B588B000AF78600023FB77C0
:1010F0000023BB6100237B610023FB607B68002B26
:1011000001D101237EE17B681B69002B7B689B6D0D
:10111000002B09D17868FFF735FC7B680022DA657F
:101120007B68002283F854207B681B681846FFF711
:1011300043FF0346002B15D17B681B681846FFF759
:1011400028FF9E4B1B689B099D4AA2FB03239B091A
:1011500001335B00FB6002E0FB68013BFB60FB6866
:10116000002BF9D17B681B681846FFF725FF034663
:10117000002B0DD17B689B6D43F010027B689A6554
:101180007B68DB6D43F001027B68DA650123FB7746
:101190007B681B681846FFF792FF38617B689B6D80
:1011A00003F01003002B40F024813B69002B40F03A
:1011B00020817B689B6D23F4817343F002027B687E
:1011C0009A657B681B681846FFF72FFF0346002BC4
:1011D00040F0A7807B689A687B681B7E9B031A435C
:1011E0007B685B7EDB031A437B689B7E5B03134358
:1011F0007A68126B002A02D04FF4805200E000227D
:101200001A437B68DB681A437B681B69002B04DA8E
:101210007B681B6923F0004301E04FF400131A437D
:101220007B6893F82C305B001343BA691343BB61AE
:101230007B6893F82030012B14D17B689B7E002BB8
:1012400004D1BB6943F48033BB610BE07B689B6DC9
:1012500043F020027B689A657B68DB6D43F00102F6
:101260007B68DA657B685B6A002B09D07B685B6A08
:1012700003F4E0727B689B6A1343BA691343BB6152
:101280007B681B68DB6823F4FE3323F4FF737A6802
:101290001268B9690B43D3607B685B6803F0404216
:1012A0007B68DB6C13437A6913437B617B6893F83B
:1012B0003C30012B11D17B685B6803F040427B68B6
:1012C0001B6C1A437B685B6C1A437B689B6C1A43EC
:1012D0007B69134343F001037B617B681B681A69D8
:1012E000384B13407A68126879690B4313617B6845
:1012F0005B68B3F1404F14D07B685B68B3F1804FFB
:101300000FD07B685B68B3F1004F0AD02E4B1B688F
:1013100023F470127B685B6803F470132A4913434B
:101320000B607B6818687B685B6B1A460021FFF7CF
:1013300086FD7B6818687B689B6B1A462349FFF71C
:101340007EFD7B681B69002B08D17B681B689A6A4D
:101350007B681B6862F00F029A6217E07B681B696A
:10136000B3F5001F12D17B681B689B6A7B68DB6941
:10137000013B9B0003F01C036FF00F0202FA03F124
:101380007B681A6E7B681B680A439A627B681B68DD
:1013900000211846FFF771FD02467B685B6B9A429D
:1013A00016D17B680022DA657B689B6D23F003030E
:1013B00043F001027B689A6523E000BF0000002033
:1013C000632D3E0502FCFF1F0827014004FFFF03B9
:1013D0007B689B6D23F0120343F010027B689A65D3
:1013E0007B68DB6D43F001027B68DA650123FB77E4
:1013F00007E07B689B6D43F010027B689A650123D0
:10140000FB77FB7F18462037BD4680BD80B586B090
:1014100000AFF860B9607A60FB681B681846FFF798
:101420004EFE0346002B69D1FB6893F85430012B24
:1014300001D1022365E0FB68012283F85420FB6898
:101440001B68DB6803F00103002B14D1FB681B68E9
:101450001846FFF7EAFD0346002B04D0FB681B6823
:101460001846FFF7CFFDFB681B68DA68FB681B684E
:1014700042F00102DA60F86800F03EFA0346FB75BC
:10148000FB7D002B3CD1FB689B6D23F4706323F044
:10149000010343F48072FB689A65FB680022DA65F9
:1014A000FB681B6D194ADA62FB681B6D184A1A63E8
:1014B000FB681B6D174A5A63FB681B681C221A6085
:1014C000FB68002283F85420FB681B685A68FB689D
:1014D0001B6842F010025A60FB68186DFB681B68BD
:1014E00040331946BA687B6800F02CFD0346FB7553
:1014F000FB681B681846FFF7BCFD01E00223FB7583
:10150000FB7D18461837BD4680BD00BFC31A0008D2
:101510008B1B0008A71B000880B584B000AF786063
:101520007B6893F85430012B01D1022350E07B6893
:10153000012283F85420786800F098F90346FB7381
:10154000FB7B002B3FD17B681B6D93F82530DBB212
:10155000022B0FD17B681B6D184600F071FD03460E
:10156000FB73FB7B002B05D07B689B6D43F0400237
:101570007B689A657B681B685A687B681B6822F0E9
:1015800010025A60FB7B002B05D1786800F03AFA14
:101590000346FB7302E0786800F034FAFB7B002B13
:1015A00009D17B689B6D23F4807323F0010343F022
:1015B00001027B689A657B681B68DA687B681B6838
:1015C00022F00102DA607B68002283F85420FB7B62
:1015D00018461037BD4680BD80B483B000AF786038
:1015E00000BF0C37BD4680BC704780B483B000AFED
:1015F000786000BF0C37BD4680BC704780B588B0AE
:1016000000AF786039600023FB770023BB607B6804
:101610001B69B3F1004F7B6893F85430012B01D163
:10162000022310E17B68012283F854207B681B6849
:101630001846FFF744FD0346002B40F0F7803B6857
:101640005B68022B00F0B1807B681B69B3F1004F2F
:1016500004D07B681B697E4A934208D17B681A6874
:101660003B681B6819461046FFF752FC41E07B6857
:101670001A6E3B685B6803F01F030F2101FA03F346
:10168000DB431A403B681B68C3F31103002B05D1F1
:101690003B681B689B0E03F01F0311E03B681B684F
:1016A0003B613B6993FAA3F3FB60FB687B617B6959
:1016B000002B01D1202303E07B69B3FA83F3DBB273
:1016C0003968496801F01F018B401A437B681A662C
:1016D0003B685B689B085A1C7B68DB699A4208D8A8
:1016E0007B6818683B6859683B681B681A46FFF7B7
:1016F000EEFB7B6818683B6819683B689B681A4674
:10170000FFF72BFC3B681B68002B80F29780514849
:10171000FFF788FBB8613B681B684F4A934220D1B2
:10172000BB6903F40003002B1BD1BB6943F4000326
:1017300019464848FFF764FB484B1B689B09484A19
:10174000A2FB03239B095A1C13465B0013449B0016
:10175000BB6002E0BB68013BBB60BB68002BF9D1FA
:101760006CE03B681B683F4A93420CD1BB6903F0B5
:101770008073002B07D1BB6943F08073194635484D
:10178000FFF73EFB5AE03B681B68374A934255D14E
:10179000BB6903F48003002B50D1BB6943F4800381
:1017A00019462C48FFF72CFB48E07B681B69B3F116
:1017B000004F04D07B681B69254A934207D17B68A0
:1017C0001A683B681B6819461046FFF7B3FB3B6875
:1017D0001B68002B32DA1F48FFF724FBB8613B6817
:1017E0001B681D4A934207D1BB6923F400031946C5
:1017F0001848FFF705FB21E03B681B68194A934234
:1018000007D1BB6923F0807319461248FFF7F8FA35
:1018100014E03B681B68144A93420FD1BB6923F460
:10182000800319460B48FFF7EBFA07E07B689B6DD6
:1018300043F020027B689A650123FB777B680022D6
:1018400083F85420FB7F18462037BD4680BD00BF7B
:101850000400008008270140001000B000000020B4
:10186000632D3E05004000B8002000B480B584B070
:1018700000AF78607B681B681846FFF720FC0346C2
:10188000002B33D07B681B681846FFF7E0FB03464C
:10189000002B04D17B681B681846FFF7FDFBFFF7A0
:1018A000A5FAF8601BE0FFF7A1FA0246FB68D31A1D
:1018B000022B14D97B681B689B6803F00403002B80
:1018C0000DD07B689B6D43F010027B689A657B6846
:1018D000DB6D43F001027B68DA65012307E07B687A
:1018E0001B689B6803F00403002BDCD1002318461F
:1018F0001037BD4680BD000080B584B000AF786071
:101900000023BB607B681B681846FFF78EFB03460D
:10191000002B69D17B681B689A68364B1340002BFB
:101920000DD07B689B6D43F010027B689A657B68E5
:10193000DB6D43F001027B68DA65012355E07B68CB
:101940001B681846FFF74BFB2B48FFF76BFA034663
:1019500003F40003002B0FD0284B1B689B09284A77
:10196000A2FB03239B090133BB6002E0BB68013B80
:10197000BB60BB68002BF9D17B685B7E012B33D049
:10198000FFF734FAF86028E07B681B681846FFF719
:101990004CFB0346002B04D17B681B681846FFF7FD
:1019A0001EFBFFF723FA0246FB68D31A022B14D959
:1019B0007B681B681B6803F00103012B0DD07B685B
:1019C0009B6D43F010027B689A657B68DB6D43F08A
:1019D00001027B68DA65012307E07B681B681B68EE
:1019E00003F00103012BCFD1002318461037BD4669
:1019F00080BD00BF170000800827014000000020C4
:101A0000632D3E0580B584B000AF78607B681B68AD
:101A10001846FFF71CFBF8607B681B681846FFF749
:101A200004FB0346002B47D0FB68002B44D17B68A6
:101A30001B689B6803F00503012B0CD17B681B68B6
:101A40001846FFF7DFFA7B681B6803221A60FFF76E
:101A5000CDF9B86029E07B689B6D43F010027B688C
:101A60009A657B68DB6D43F001027B68DA650123D0
:101A700023E0FFF7BBF90246BB68D31A022B14D947
:101A80007B681B689B6803F00103002B0DD07B680B
:101A90009B6D43F010027B689A657B68DB6D43F0B9
:101AA00001027B68DA65012307E07B681B689B689D
:101AB00003F00103002BDCD1002318461037BD468C
:101AC00080BD80B584B000AF78607B689B6AFB60A6
:101AD000FB689B6D03F05003002B43D1FB689B6DAB
:101AE00043F40072FB689A65FB681B681846FFF7B1
:101AF000DCF90346002B31D0FB689B7E002B2DD1F7
:101B0000FB681B681B6803F00803082B26D1FB68E1
:101B10001B681846FFF7D3FA0346002B12D1FB6867
:101B20001B685A68FB681B6822F00C025A60FB684D
:101B30009B6D23F4807323F0010343F00102FB68E3
:101B40009A650BE0FB689B6D43F02002FB689A6589
:101B5000FB68DB6D43F00102FB68DA65F868FEF7AD
:101B600087FE0EE0FB689B6D03F01003002B03D093
:101B7000F868FFF73AFD04E0FB681B6D5B6B786863
:101B8000984700BF1037BD4680BD80B584B000AF18
:101B900078607B689B6AFB60F868FFF71DFD00BFFB
:101BA0001037BD4680BD80B584B000AF78607B68DB
:101BB0009B6AFB60FB689B6D43F04002FB689A6583
:101BC000FB68DB6D43F00402FB68DA65F868FFF739
:101BD0000CFD00BF1037BD4680BD000080B485B04D
:101BE00000AF78607B6803F00703FB600C4BDB6899
:101BF000BB60BA684FF6FF031340BB60FB681A0274
:101C0000BB68134343F0BF6343F40033BB60044A33
:101C1000BB68D36000BF1437BD4680BC704700BFAF
:101C200000ED00E080B400AF044BDB681B0A03F05A
:101C300007031846BD4680BC704700BF00ED00E0BA
:101C400080B483B000AF0346FB7197F90730002BD7
:101C50000BDBFB7903F01F02064997F907305B099C
:101C6000012000FA02F241F8232000BF0C37BD46E4
:101C700080BC704700E100E080B483B000AF034651
:101C80003960FB7197F90730002B0ADB3B68DAB249
:101C90000C4997F907301201D2B20B4483F80023A4
:101CA0000AE03B68DAB20849FB7903F00F03043B12
:101CB0001201D2B20B441A7600BF0C37BD4680BC6D
:101CC000704700BF00E100E000ED00E080B489B0A3
:101CD00000AFF860B9607A60FB6803F00703FB614E
:101CE000FB69C3F10703042B28BF0423BB61FB6915
:101CF0000433062B02D9FB69033B00E000237B6120
:101D00004FF0FF32BB6902FA03F3DA43BB681A40B3
:101D10007B699A404FF0FF317B6901FA03F3D943A5
:101D20007B680B40134318462437BD4680BC704780
:101D300080B582B000AF78607B68013BB3F1807FF3
:101D400001D301230FE00A4A7B68013B53600F2156
:101D50004FF0FF30FFF790FF054B00229A60044BD5
:101D600007221A60002318460837BD4680BD00BF11
:101D700010E000E080B582B000AF78607868FFF7CF
:101D80002DFF00BF0837BD4680BD80B586B000AFCF
:101D90000346B9607A60FB73FFF744FF78617A68A5
:101DA000B9687869FFF792FF024697F90F3011463C
:101DB0001846FFF761FF00BF1837BD4680BD80B5EC
:101DC00082B000AF0346FB7197F907301846FFF762
:101DD00037FF00BF0837BD4680BD80B582B000AF79
:101DE00078607868FFF7A4FF034618460837BD46B9
:101DF00080BD000080B582B000AF78607B68002BAA
:101E000001D101238EE07B681B681A46474B9A423A
:101E10000FD87B681B681A46454B1344454AA2FB02
:101E200003231B099A007B685A647B68424A1A6440
:101E30000EE07B681B681A46404B13443D4AA2FBE8
:101E400003231B099A007B685A647B683C4A1A6426
:101E50007B68022283F825207B681B681B687A68F0
:101E6000126823F4FF4323F0700313607B681B6840
:101E700019687B689A687B68DB681A437B681B6912
:101E80001A437B685B691A437B689B691A437B68CA
:101E9000DB691A437B681B6A1A437B681B680A4329
:101EA0001A60786800F05CFA7B689B68B3F5804F35
:101EB00002D17B6800225A607B685A687B689B6C01
:101EC00002F07F021A607B68DB6C7A68126D5A60E0
:101ED0007B685B68002B10D07B685B68042B0CD898
:101EE000786800F085FA7B685B6D00221A607B6879
:101EF0009B6D7A68D26D5A6008E07B6800225A6553
:101F00007B6800229A657B680022DA657B68002284
:101F1000DA637B68012283F825207B68002283F83E
:101F20002420002318460837BD4680BD0704024020
:101F3000F8FFFDBFCDCCCCCC00000240F8FBFDBFCC
:101F40000004024080B586B000AFF860B9607A60E6
:101F50003B600023FB75FB6893F82430012B01D113
:101F6000022369E0FB68012283F82420FB6893F8D0
:101F70002530DBB2012B55D1FB68022283F82520E6
:101F8000FB680022DA63FB681B681A68FB681B6841
:101F900022F001021A603B687A68B968F86800F0BC
:101FA000A2F9FB681B6B002B08D0FB681B681A6842
:101FB000FB681B6842F00E021A600FE0FB681B68AA
:101FC0001A68FB681B6822F004021A60FB681B6831
:101FD0001A68FB681B6842F00A021A60FB689B6C77
:101FE0001B6803F48033002B07D0FB689B6C1A68D6
:101FF000FB689B6C42F480721A60FB685B6D002B7F
:1020000007D0FB685B6D1A68FB685B6D42F48072F9
:102010001A60FB681B681A68FB681B6842F00102C3
:102020001A6008E0FB688022DA63FB68002283F80C
:1020300024200123FB75FB7D18461837BD4680BD63
:1020400080B483B000AF78607B68002B01D101239E
:102050004FE07B6893F82530DBB2022B08D07B6819
:102060000422DA637B68002283F82420012340E005
:102070007B681B681A687B681B6822F00E021A6076
:102080007B689B6C1A687B689B6C22F480721A6078
:102090007B681B681A687B681B6822F001021A6063
:1020A0007B685B6C03F01C027B681B6C012101FAEE
:1020B00002F25A607B68DB6C7A68126D5A607B684A
:1020C0005B6D002B0CD07B685B6D1A687B685B6D69
:1020D00022F480721A607B689B6D7A68D26D5A60B8
:1020E0007B68012283F825207B68002283F8242066
:1020F000002318460C37BD4680BC704780B584B0BD
:1021000000AF78607B681B6C1B68FB607B681B689A
:102110001B68BB607B685B6C03F01C0304229A4065
:10212000FB681340002B27D0BB6803F00403002B8F
:1021300022D07B681B681B6803F02003002B07D1AB
:102140007B681B681A687B681B6822F004021A60AF
:102150007B685B6C03F01C027B681B6C042101FA3A
:1021600002F25A607B681B6B002B00F081807B6859
:102170001B6B786898477BE07B685B6C03F01C0303
:1021800002229A40FB681340002B3DD0BB6803F04D
:102190000203002B38D07B681B681B6803F0200308
:1021A000002B0BD17B681B681A687B681B6822F0C8
:1021B0000A021A607B68012283F825207B681B686D
:1021C0001A462E4B9A4209D97B685B6C03F01C03BC
:1021D0002B4A022101FA03F3536008E07B685B6C31
:1021E00003F01C03274A022101FA03F353607B68C2
:1021F000002283F824207B68DB6A002B38D07B68C0
:10220000DB6A7868984733E07B685B6C03F01C03FB
:1022100008229A40FB681340002B2AD0BB6803F0C9
:102220000803002B25D07B681B681A687B681B6835
:1022300022F00E021A607B685B6C03F01C027B6864
:102240001B6C012101FA02F25A607B680122DA63F9
:102250007B68012283F825207B68002283F82420F4
:102260007B685B6B002B04D07B685B6B786898475E
:1022700000BF00BF1037BD4680BD00BF80000240D8
:10228000000402400000024080B485B000AF7860D6
:1022900039600023FB727B68002B03D10123FB72A2
:1022A000FB7A1BE07B681B681B68FB603B6803F0E4
:1022B0001003002B0DD03B6803F48013002B04D0D7
:1022C000FB6843F48013FB6003E0FB6823F4801396
:1022D000FB607B681B68FA681A60FB7A1846143743
:1022E000BD4680BC704780B485B000AFF860B9606F
:1022F0007A603B60FB68DB6CFA68126D5A60FB68C1
:102300005B6D002B04D0FB689B6DFA68D26D5A6040
:10231000FB685B6C03F01C02FB681B6C012101FA7B
:1023200002F25A60FB681B683A685A60FB689B6857
:10233000102B08D1FB681B687A689A60FB681B68E1
:10234000BA68DA6007E0FB681B68BA689A60FB68E5
:102350001B687A68DA6000BF1437BD4680BC7047DE
:1023600080B485B000AF78607B681B681A461C4B50
:102370009A4213D87B685B6C9B089B0003F18043F7
:1023800003F502337A6893647B681B68DBB2083B11
:10239000144AA2FB03231B09FB6011E07B685B6C02
:1023A0009B089A00104B13447A6893647B681B68FF
:1023B000DBB2083B0B4AA2FB03231B090733FB607C
:1023C0007B680A4ADA64FB6803F01F0301229A4023
:1023D0007B681A6500BF1437BD4680BC704700BFDC
:1023E00007040240CDCCCCCC1C080240800802403F
:1023F00080B485B000AF78607B685B6803F07F03D2
:10240000FB60FA680A4B13449B001A467B685A65C6
:102410007B68084A9A65FB68013B03F003030122CD
:102420009A407B68DA6500BF1437BD4680BC7047B0
:102430003F8200104009024080B487B000AF78604E
:10244000396000237B6140E13B681A6801217B69A8
:1024500001FA03F31340FB60FB68002B00F03281AC
:102460003B685B6803F00303012B05D03B685B68A6
:1024700003F00303022B30D17B689B683B617B69CF
:102480005B00032202FA03F3DB433A6913403B612A
:102490003B68DA687B695B0002FA03F33A6913432D
:1024A0003B617B683A699A607B685B683B610122AB
:1024B0007B6902FA03F3DB433A6913403B613B68F3
:1024C0005B681B0903F001027B6902FA03F33A69B6
:1024D00013433B617B683A695A603B685B6803F071
:1024E0000303032B17D07B68DB683B617B695B00D0
:1024F000032202FA03F3DB433A6913403B613B6872
:102500009A687B695B0002FA03F33A6913433B6103
:102510007B683A69DA603B685B6803F00303022B6F
:1025200023D17B69DA087B68083253F822303B619B
:102530007B6903F007039B000F2202FA03F3DB43DE
:102540003A6913403B613B681A697B6903F00703F2
:102550009B0002FA03F33A6913433B617B69DA0893
:102560007B680832396943F822107B681B683B613D
:102570007B695B00032202FA03F3DB433A691340F1
:102580003B613B685B6803F003027B695B0002FA16
:1025900003F33A6913433B617B683A691A603B680D
:1025A0005B6803F44033002B00F08C804E4A7B695B
:1025B0009B08023352F823303B617B6903F003032D
:1025C0009B00072202FA03F3DB433A6913403B61A5
:1025D0007B68B3F1904F0DD07B68444A934207D09B
:1025E0007B68434A934201D1022304E0072302E0BF
:1025F000012300E000237A6902F003029200934075
:102600003A6913433B6138497B699B0802333A6955
:1026100041F82320374B1B683B61FB68DB433A6979
:1026200013403B613B685B6803F48013002B03D0CD
:102630003A69FB6813433B612E4A3B6913602D4B9B
:102640005B683B61FB68DB433A6913403B613B6875
:102650005B6803F40013002B03D03A69FB68134353
:102660003B61244A3B695360224BD3F880303B6185
:10267000FB68DB433A6913403B613B685B6803F4EA
:102680008033002B03D03A69FB6813433B61194A3E
:102690003B69C2F88030174BD3F884303B61FB684C
:1026A000DB433A6913403B613B685B6803F40033EA
:1026B000002B03D03A69FB6813433B610D4A3B6929
:1026C000C2F884307B6901337B613B681A687B699F
:1026D00022FA03F3002B7FF4B7AE00BF00BF1C3714
:1026E000BD4680BC704700BF0000014000040048A8
:1026F000000800480008005880B483B000AF78603C
:102700000B467B8013467B707B78002B03D07A8846
:102710007B689A6102E07A887B689A6200BF0C3716
:10272000BD4680BC7047000080B400AF044B1B68FE
:10273000034A43F48073136000BFBD4680BC7047FA
:102740000004005880B400AF034B1B6803F4C0635F
:102750001846BD4680BC70470004005880B400AFE6
:10276000064B1B6803F48073B3F5807F01D101230E
:1027700000E000231846BD4680BC704700040058A6
:1027800080B400AF4FF0B0431B684FF0B04243F449
:102790000013136000BFBD4680BC704780B400AF1B
:1027A0004FF0B0431B684FF0B04223F400131360A6
:1027B00000BFBD4680BC704780B400AF4FF0B0434F
:1027C0001B6803F48013B3F5801F01D1012300E0DF
:1027D00000231846BD4680BC704780B400AF4FF060
:1027E000B0431B684FF0B04243F48033136000BF26
:1027F000BD4680BC704780B400AF4FF0B0431B684B
:102800004FF0B04223F48033136000BFBD4680BC5C
:10281000704780B400AF4FF0B0431B6803F400333F
:10282000B3F5003F01D1012300E000231846BD4667
:1028300080BC704780B400AF4FF0B0431B684FF0CE
:10284000B04243F48073136000BFBD4680BC704744
:1028500080B400AF4FF0B0431B684FF0B04223F498
:102860008073136000BFBD4680BC704780B400AF6A
:102870004FF0B0431B6803F48063B3F5806F01D160
:10288000012300E000231846BD4680BC704780B499
:1028900083B000AF78604FF0B0435B6823F0FE4236
:1028A0007B681B064FF0B04113434B6000BF0C37F1
:1028B000BD4680BC704780B400AF4FF0B043D3F842
:1028C000903003F00203022B01D1012300E000232A
:1028D0001846BD4680BC704780B400AF4FF0B0438F
:1028E000D3F894304FF0B04243F00103C2F8943073
:1028F00000BFBD4680BC704780B400AF4FF0B0430E
:10290000D3F894304FF0B04223F00103C2F8943072
:1029100000BFBD4680BC704780B400AF4FF0B043ED
:10292000D3F8943003F00203022B01D1012300E01D
:1029300000231846BD4680BC704780B400AF4FF0FE
:10294000B0431B684FF0B04243F00103136000BF77
:10295000BD4680BC704780B400AF4FF0B0431B68E9
:102960004FF0B04223F00103136000BFBD4680BCAE
:10297000704780B400AF4FF0B0431B6803F0020310
:10298000022B01D1012300E000231846BD4680BC84
:10299000704780B400AF4FF0B0431B6803F00803EA
:1029A000082B01D1012300E000231846BD4680BC5E
:1029B000704780B400AF4FF0B0431B6803F0F003E2
:1029C0001846BD4680BC704780B400AF4FF0B0439E
:1029D000D3F8943003F470631846BD4680BC70474A
:1029E00080B483B000AF78604FF0B0435B6823F4ED
:1029F0007F427B681B024FF0B04113434B6000BF26
:102A00000C37BD4680BC704780B483B000AF78609F
:102A10004FF0B0439B6823F003024FF0B0417B6856
:102A200013438B6000BF0C37BD4680BC704780B439
:102A300000AF4FF0B0439B6803F00C031846BD464F
:102A400080BC704780B483B000AF78604FF0B04373
:102A50009B6823F0F0024FF0B0417B6813438B601A
:102A600000BF0C37BD4680BC704780B483B000AF58
:102A700078604FF0B043D3F8083123F0F0024FF004
:102A8000B0417B681343C1F8083100BF0C37BD4625
:102A900080BC704780B483B000AF78604FF0B04323
:102AA000D3F8083123F00F027B681B094FF0B041C7
:102AB0001343C1F8083100BF0C37BD4680BC7047D6
:102AC00080B483B000AF78604FF0B0439B6823F4CC
:102AD000E0624FF0B0417B6813438B6000BF0C375E
:102AE000BD4680BC704780B483B000AF78604FF0C3
:102AF000B0439B6823F460524FF0B0417B681343AE
:102B00008B6000BF0C37BD4680BC704780B400AFFF
:102B10004FF0B0439B6803F0F0031846BD4680BCFD
:102B2000704780B400AF4FF0B043D3F808311B01B9
:102B300003F0F0031846BD4680BC704780B400AF78
:102B40004FF0B0439B6803F4E0631846BD4680BC79
:102B5000704780B400AF4FF0B0439B6803F46053FC
:102B60001846BD4680BC704780B400AF4FF0B043FC
:102B70001B684FF0B04243F08073136000BFBD4646
:102B800080BC704780B400AF4FF0B0431B684FF07B
:102B9000B04223F08073136000BFBD4680BC704715
:102BA00080B400AF4FF0B0431B6803F00073B3F183
:102BB000007F01D1012300E000231846BD4680BC00
:102BC000704780B400AF4FF0B043DB681B0A03F0DE
:102BD0007F031846BD4680BC704780B400AF4FF0FD
:102BE000B043DB6803F060431846BD4680BC7047C5
:102BF00080B400AF4FF0B043DB6803F070031846B9
:102C0000BD4680BC704780B400AF4FF0B043DB6876
:102C100003F003031846BD4680BC704780B400AF84
:102C20004FF0B0439B6803F48033B3F5803F01D18C
:102C3000012300E000231846BD4680BC704780B4E5
:102C400000AF4FF0B043D3F8083103F40033B3F5CD
:102C5000003F01D1012300E000231846BD4680BC9F
:102C6000704780B400AF4FF0B043D3F8083103F49D
:102C70008033B3F5803F01D1012300E000231846E3
:102C8000BD4680BC704780B400AF4FF0B0439B6836
:102C900003F40033B3F5003F01D1012300E000232A
:102CA0001846BD4680BC704780B400AF4FF0B043BB
:102CB0009B6803F48023B3F5802F01D1012300E04A
:102CC00000231846BD4680BC7047000080B588B020
:102CD00000AF78607B68002B01D101236FE3FFF721
:102CE000A6FEF861FFF78FFFB8617B681B6803F0F1
:102CF0002003002B00F0C480FB69002B05D0FB698A
:102D00000C2B76D1BB69012B73D17B681B6A002B1E
:102D100001D1012353E37B689A6A4FF0B0431B68EB
:102D200003F00803002B05D04FF0B0431B6803F0FD
:102D3000F00306E04FF0B043D3F894301B0903F0E2
:102D4000F003934222D27B689B6A184600F05AFD3A
:102D50000346002B01D0012331E34FF0B0431B6841
:102D60004FF0B04243F0080313604FF0B0431B68CC
:102D700023F0F0027B689B6A4FF0B04113430B6075
:102D80007B685B6A1846FFF72BFE21E04FF0B043EB
:102D90001B684FF0B04243F0080313604FF0B0439C
:102DA0001B6823F0F0027B689B6A4FF0B04113432D
:102DB0000B607B685B6A1846FFF712FE7B689B6AB4
:102DC000184600F01FFD0346002B01D00123F6E258
:102DD00000F0E0FC0346A74A1360A74B1B681846A7
:102DE000FDF7B8FF0346FB74FB7C002B47D0FB7C50
:102DF000E5E27B681B6A002B2CD0FFF79EFDFDF7F8
:102E0000F5FF786108E0FDF7F1FF02467B69D31A10
:102E1000022B01D90323D2E2FFF7ABFD0346002BBF
:102E2000F1D04FF0B0431B684FF0B04243F00803BD
:102E300013604FF0B0431B6823F0F0027B689B6A7D
:102E40004FF0B04113430B607B685B6A1846FFF795
:102E5000C7FD15E0FFF77FFDFDF7C8FF786108E0CB
:102E6000FDF7C4FF02467B69D31A022B01D9032365
:102E7000A5E2FFF77EFD0346002BF1D100E000BF85
:102E80007B681B6803F00103002B58D0FB69082BFB
:102E900005D0FB690C2B08D1BB69032B05D17B68DE
:102EA0005B68002B4BD1012389E24FF0B0431B68D4
:102EB00023F480127B689B684FF0B04113430B6092
:102EC0007B685B68B3F5803F02D1FFF786FC0DE0BD
:102ED0007B685B68B3F5041F04D1FFF751FCFFF773
:102EE0007CFC03E0FFF787FCFFF758FC7B685B681E
:102EF000002B12D0FDF77AFF786108E0FDF776FF2E
:102F000002467B69D31A642B01D9032357E2FFF7EA
:102F100080FC0346002BF1D011E0FDF767FF7861DC
:102F200008E0FDF763FF02467B69D31A642B01D9E1
:102F3000032344E2FFF76DFC0346002BF1D17B68CD
:102F40001B6803F00203002B46D0FB69042B05D05D
:102F5000FB690C2B0ED1BB69022B0BD17B681B6963
:102F6000002B01D101232AE27B685B691846FFF739
:102F70008EFC31E07B681B69002B19D0FFF75AFCEF
:102F8000FDF734FF786108E0FDF730FF02467B690A
:102F9000D31A022B01D9032311E2FFF767FC034682
:102FA000002BF1D07B685B691846FFF770FC13E0DB
:102FB000FFF74EFCFDF71AFF786108E0FDF716FFFA
:102FC00002467B69D31A022B01D90323F7E1FFF7ED
:102FD0004DFC0346002BF1D17B681B6803F008030E
:102FE000002B6ED07B689B69002B56D04FF0B0430E
:102FF000D3F89430FB607B68DA69FB6803F0100358
:103000009A4231D0FB6803F00203002B06D0FB6824
:1030100003F00103002B01D10123D0E1FB6803F091
:103020000103002B13D0FFF767FCFDF7DFFE78618B
:1030300008E0FDF7DBFE02467B69D31A112B01D9AC
:103040000323BCE1FFF768FC0346002BF1D14FF0EE
:10305000B043D3F8943023F010027B68DB694FF063
:10306000B0411343C1F89430FFF736FCFDF7BEFEC4
:1030700078610CE00000002004000020FDF7B6FE9F
:1030800002467B69D31A112B01D9032397E1FFF77D
:1030900043FC0346002BF1D013E0FFF72DFCFDF7B6
:1030A000A5FE786108E0FDF7A1FE02467B69D31A10
:1030B000112B01D9032382E1FFF72EFC0346002BDD
:1030C000F1D17B681B6803F00403002B00F0D8806B
:1030D000FFF744FB0346002B13D1FFF725FBFDF759
:1030E00085FE786108E0FDF781FE02467B69D31A10
:1030F000022B01D9032362E1FFF730FB0346002BCB
:10310000F1D07B68DB68002B7BD07B68DB68852B8C
:1031100003D07B68DB68052B09D14FF0B043D3F8AF
:1031200090304FF0B04243F00403C2F89030FDF706
:103130005DFE78614FF0B043D3F890304FF0B0426D
:1031400043F00103C2F890300AE0FDF74FFE02465B
:103150007B69D31A41F28832934201D903232EE1CD
:10316000FFF7A9FB0346002BEFD07B68DB68812BC0
:1031700003D07B68DB68852B21D1FDF737FE7861B2
:103180004FF0B043D3F890304FF0B04243F080039B
:10319000C2F890300AE0FDF729FE02467B69D31A97
:1031A00041F28832934201D9032308E14FF0B04342
:1031B000D3F8903003F40063002BECD060E0FDF70F
:1031C00015FE78614FF0B043D3F890304FF0B04225
:1031D00023F08003C2F890300AE0FDF707FE0246B4
:1031E0007B69D31A41F28832934201D90323E6E086
:1031F0004FF0B043D3F8903003F40063002BECD1D0
:103200003EE0FDF7F3FD78614FF0B043D3F8903026
:103210004FF0B04223F08003C2F890300AE0FDF78F
:10322000E5FD02467B69D31A41F28832934201D907
:103230000323C4E04FF0B043D3F8903003F40063AD
:10324000002BECD1FDF7D2FD78614FF0B043D3F8FD
:1032500090304FF0B04223F00103C2F890300AE002
:10326000FDF7C4FD02467B69D31A41F288329342CE
:1032700001D90323A3E0FFF71EFB0346002BEFD188
:103280007B68DB6A002B00F09980FB690C2B6CD00B
:103290007B68DB6A022B4BD1FFF774FCFDF7A6FDC0
:1032A000786108E0FDF7A2FD02467B69D31A0A2B7C
:1032B00001D9032383E0FFF773FC0346002BF1D110
:1032C0004FF0B043DA68404B13407A68116B7A686C
:1032D000526B11437A68926B120211437A68D26B77
:1032E00011437A68126C11437A68526C0A434FF0AA
:1032F000B0411343CB60FFF737FC4FF0B043DB68BE
:103300004FF0B04243F08053D360FDF76FFD78611A
:1033100008E0FDF76BFD02467B69D31A0A2B01D941
:1033200003234CE0FFF73CFC0346002BF1D045E0C3
:10333000FFF728FCFDF75AFD786108E0FDF756FD20
:1033400002467B69D31A0A2B01D9032337E0FFF722
:1033500027FC0346002BF1D14FF0B043DA684FF061
:10336000B0411A4B1340CB6028E07B68DB6A012B2D
:1033700001D1012323E04FF0B043DB68BB61BB699F
:1033800003F003027B681B6B9A4215D1BB6903F003
:1033900070027B685B6B9A420ED1BB6903F4FE42FC
:1033A0007B689B6B1B029A4206D1BB6903F06042AB
:1033B0007B685B6C9A4201D0012300E00023184631
:1033C0002037BD4680BD00BF8C80C111FCFFFEEEE2
:1033D00080B584B000AF786039607B68002B01D184
:1033E00001232CE1984B1B6803F007033A689A42CB
:1033F0001BD9954B1B6823F0070293493B68134385
:103400000B60FDF7F3FCF86008E0FDF7EFFC024607
:10341000FB68D31A022B01D9032310E18A4B1B68E6
:1034200003F007033A689A42EFD17B681B6803F008
:103430000203002B16D07B689B681846FFF702FB3F
:10344000FDF7D4FCF86008E0FDF7D0FC0246FB680D
:10345000D31A022B01D90323F1E0FFF7DFFB034668
:10346000002BF1D07B681B6803F02003002B16D0E3
:103470007B685B691846FFF7F8FAFDF7B7FCF86060
:1034800008E0FDF7B3FC0246FB68D31A022B01D912
:103490000323D4E0FFF7D3FB0346002BF1D07B6876
:1034A0001B6803F04003002B16D07B689B6918460D
:1034B000FFF7F0FAFDF79AFCF86008E0FDF796FCDC
:1034C0000246FB68D31A022B01D90323B7E0FFF7AA
:1034D000C8FB0346002BF1D07B681B6803F0040394
:1034E000002B16D07B68DB681846FFF7E9FAFDF77A
:1034F0007DFCF86008E0FDF779FC0246FB68D31A12
:10350000022B01D903239AE0FFF7BDFB0346002BF2
:10351000F1D07B681B6803F00803002B17D07B6891
:103520001B69DB001846FFF7DEFAFDF75FFCF86069
:1035300008E0FDF75BFC0246FB68D31A022B01D9B9
:1035400003237CE0FFF7B0FB0346002BF1D07B6840
:103550001B6803F00103002B43D07B685B68022BE0
:1035600006D1FFF756F90346002B1ED1012366E072
:103570007B685B68032B06D1FFF712FB0346002B29
:1035800013D101235BE07B685B68002B06D1FFF75A
:10359000F0F90346002B08D1012350E0FFF766F94C
:1035A0000346002B01D1012349E07B685B68184684
:1035B000FFF72AFAFDF71AFCF8600AE0FDF716FC9F
:1035C0000246FB68D31A41F28832934201D90323A1
:1035D00035E0FFF72CFA02467B685B689B009A4255
:1035E000ECD1194B1B6803F007033A689A421BD2CF
:1035F000154B1B6823F0070213493B6813430B600C
:10360000FDF7F4FBF86008E0FDF7F0FB0246FB680D
:10361000D31A022B01D9032311E00B4B1B6803F0D3
:1036200007033A689A42EFD100F0B4F80346074A1C
:103630001360074B1B681846FDF78CFB03461846C2
:103640001037BD4680BD00BF00400058000000207C
:103650000400002090B587B000AF00237B610023F9
:103660003B61FFF7E4F9B860FFF7CDFA7860BB681B
:10367000002B05D0BB680C2B39D17B68012B36D1D0
:10368000FFF787F90346002B15D1FFF782F90346B0
:10369000012B06D1FFF78DF903461B0A03F00F0338
:1036A00005E0FFF791F903461B0A03F00F03364AC2
:1036B00052F8233014E0FFF76CF90346012B06D1D2
:1036C000FFF777F903461B0903F00F0305E0FFF747
:1036D0007BF903461B0903F00F032B4A52F82330F2
:1036E0003B61BB68002B15D13B697B6112E0BB6875
:1036F000042B02D1254B7B610CE0BB68082B09D160
:10370000FFF75AF80346012B02D1204B7B6101E001
:103710001F4B7B61FFF78BF903460C2B2FD1FFF773
:1037200072FA78607B68022B03D07B68032B03D08E
:103730000DE0164BFB600DE0FFF73EF80346012B52
:1037400002D1124BFB6005E0114BFB6002E03B69CC
:10375000FB6000BFFFF735FA0246FB6803FB02F48B
:10376000FFF746FA03461B090133B4FBF3F4FFF7F6
:1037700034FA03465B0F0133B4FBF3F37B617B69DF
:1037800018461C37BD4690BD8C5900080024F40033
:103790000048E80198B500AFFFF75CFF0446FFF76B
:1037A000B5F903461B0903F00F03034A52F823300F
:1037B000B4FBF3F3184698BD2C59000898B500AF38
:1037C000FFF7E8FF0446FFF7B9F903461B0A034A6F
:1037D00052F8233024FA03F3184698BD6C590008B8
:1037E00098B500AFFFF7D6FF0446FFF7B2F90346DE
:1037F000DB0A034A52F8233024FA03F3184698BD33
:103800006C59000890B585B000AF78607B681B09E3
:1038100003F00F03104A52F82330FB60FFF781F9E1
:1038200003461B0903F00F030C4A52F82330FA68D1
:10383000B2FBF3F3BB60BB68094AA2FB03239C0CF9
:10384000FEF780FF03461946204600F00BF80346BA
:1038500018461437BD4690BD8C5900082C590008F5
:1038600083DE1B4380B58EB000AF786039603A4A82
:1038700007F1200392E80300186004331980374AE7
:1038800007F1180392E80300186004331980344AE2
:1038900007F10C0307CA83E8070000237B633B683A
:1038A000B3F5007F1BD100233B6314E03B6B5B004F
:1038B00038333B4433F8183C1A467B68934207D8A8
:1038C0003B6B9B0038333B4453F82C3C7B6321E03B
:1038D0003B6B01333B633B6B022BE7D91AE00023C0
:1038E000FB6214E0FB6A5B0038333B4433F8203C56
:1038F0001A467B68934207D8FB6A9B0038333B44E7
:1039000053F82C3C7B6305E0FB6A0133FB62FB6AE6
:10391000022BE7D9134B1B6823F0070211497B6B7D
:1039200013430B60FDF762FAB86208E0FDF75EFA38
:103930000246BB6AD31A022B01D9032307E0094BC5
:103940001B6803F007037A6B9A42EFD100231846F5
:103950003837BD4680BD00BF10590008185900080F
:10396000205900080040005880B400AF4FF0B04329
:10397000D3F8903003F00203022B01D1012300E0C1
:1039800000231846BD4680BC704780B483B000AFAA
:1039900078604FF0B043D3F888207B681B0CDB4382
:1039A0001A407B689BB24FF0B0411343C1F8883096
:1039B00000BF0C37BD4680BC704780B483B000AFF9
:1039C00078604FF0B043D3F8883023F440724FF062
:1039D000B0417B681343C1F8883000BF0C37BD4647
:1039E00080BC704780B483B000AF78604FF0B043C4
:1039F000D3F8883023F440624FF0B0417B68134322
:103A0000C1F8883000BF0C37BD4680BC704780B419
:103A100083B000AF78604FF0B043D3F888207B6864
:103A20001B0903F47F23DB431A407B681B0103F46B
:103A30007F234FF0B0411343C1F8883000BF0C37EB
:103A4000BD4680BC704780B483B000AF78604FF053
:103A5000B043D3F888207B681B0C1B04DB431A405F
:103A60007B681B044FF0B0411343C1F8883000BF9E
:103A70000C37BD4680BC704780B483B000AF78601F
:103A80004FF0B043D3F8883023F040424FF0B041BC
:103A90007B681343C1F8883000BF0C37BD4680BC3B
:103AA000704780B483B000AF78604FF0B043D3F874
:103AB000883023F040524FF0B0417B681343C1F887
:103AC000883000BF0C37BD4680BC704780B483B0DF
:103AD00000AF78604FF0B043D3F8903023F44072D9
:103AE0004FF0B0417B681343C1F8903000BF0C37F2
:103AF000BD4680BC704780B400AF4FF0B043D3F8F0
:103B0000903003F440731846BD4680BC704780B4C3
:103B100000AF4FF0B043D3F890304FF0B04243F4D1
:103B20008033C2F8903000BFBD4680BC704780B47F
:103B300000AF4FF0B043D3F890304FF0B04223F4D1
:103B40008033C2F8903000BFBD4680BC7047000093
:103B500080B586B000AF786000237B610023FB74E2
:103B60000023BB747B681B6803F48033002B58D0A0
:103B7000FEF7DAFDFDF73AF9F86009E0FDF736F9EE
:103B80000246FB68D31A022B02D90323FB7406E01A
:103B90007B4B1B6803F48073B3F5807FEED1FB7C15
:103BA000002B3CD1FFF7A7FF02467B685B6B9A4274
:103BB0000FD04FF0B043D3F8903023F440737B61C3
:103BC000FFF7A5FFFFF7B3FF4FF0B0427B69C2F8E4
:103BD00090307B6903F00203002B14D0FDF706F947
:103BE000F8600BE0FDF702F90246FB68D31A41F2D8
:103BF0008832934202D90323FB7404E0FFF7B4FE3A
:103C00000346012BEED1FB7C002B05D17B685B6B5F
:103C10001846FFF75BFF04E0FB7CBB7401E0FB7C14
:103C2000BB747B681B6803F00103002B04D07B6826
:103C30005B681846FFF7A9FE7B681B6803F0020368
:103C4000002B04D07B689B681846FFF79EFE7B68BC
:103C50001B6803F02003002B04D07B681B69184607
:103C6000FFF7C0FE7B681B6803F40073002B04D0D1
:103C70007B681B6A1846FFF7E6FE7B681B6803F447
:103C80008063002B04D07B685B6A1846FFF7DBFE7D
:103C90007B681B6803F40063002B04D07B689B6A7D
:103CA0001846FFF7D0FE7B681B6803F04003002B2B
:103CB00004D07B685B691846FFF7A9FE7B681B6828
:103CC00003F08003002B04D07B689B691846FFF744
:103CD0009EFE7B681B6803F48073002B04D07B6816
:103CE000DB691846FFF793FE7B681B6803F010033F
:103CF000002B11D07B68DB681846FFF75EFE7B68FF
:103D0000DB68B3F5807F07D14FF0B043DB684FF03D
:103D1000B04243F08073D3607B681B6803F40043B8
:103D2000002B10D07B681B6B1846FFF7A5FE7B6845
:103D30001B6B002B07D14FF0B043DB684FF0B04254
:103D400043F08073D3607B681B6803F48043002BCF
:103D500011D07B68DB6A1846FFF7A3FE7B68DB6A3D
:103D6000B3F1005F07D14FF0B043DB684FF0B042D2
:103D700043F48033D360BB7C18461837BD4680BD02
:103D80000004005880B483B000AF78604FF0B043B7
:103D9000D3F888207B681A407B681B0413431846BD
:103DA0000C37BD4680BC704780B483B000AF7860EC
:103DB0004FF0B043D3F888207B68134018460C3787
:103DC000BD4680BC704780B582B000AF78607B682C
:103DD000002B01D1012342E07B68D3F88830002B0F
:103DE00006D17B68002283F884207868FCF746FEC1
:103DF0007B682422C3F888207B681B681A687B686C
:103E00001B6822F001021A607B689B6A002B02D0BB
:103E1000786800F023FB786800F0ACF80346012BCB
:103E200001D101231BE07B681B685A687B681B6813
:103E300022F490425A607B681B689A687B681B6812
:103E400022F02A029A607B681B681A687B681B68EC
:103E500042F001021A60786800F0A1FB03461846A0
:103E60000837BD4680BD80B58AB002AFF860B96042
:103E70003B601346FB80FB68D3F88830202B73D15E
:103E8000BB68002B02D0FB88002B01D101236CE022
:103E9000FB680022C3F89020FB682122C3F8882029
:103EA000FCF7A4FF7861FB68FA88A3F85420FB684C
:103EB000FA88A3F85620FB689B68B3F5805F08D1A9
:103EC000FB681B69002B04D10023FB61BB68BB614D
:103ED00003E0BB68FB610023BB612CE03B680093FF
:103EE0007B6900228021F86800F0A7FB0346002BC5
:103EF00001D0032339E0FB69002B0BD1BB691B8880
:103F00001A46FB681B68C2F308029A62BB69023357
:103F1000BB6107E0FB691A78FB681B689A62FB6962
:103F20000133FB61FB68B3F856309BB2013B9AB298
:103F3000FB68A3F85620FB68B3F856309BB2002B01
:103F4000CCD13B6800937B6900224021F86800F0E7
:103F500074FB0346002B01D0032306E0FB682022FC
:103F6000C3F88820002300E0022318462037BD460E
:103F700080BD00002DE9B04F8CB000AF7861002308
:103F800087F82A307B699A687B691B691A437B69C9
:103F90005B691A437B69DB691343FB627B691B68BE
:103FA0001A68944B13407A691268F96A0B431360DC
:103FB0007B691B685B6823F440517B69DA687B6925
:103FC0001B680A435A607B699B69FB627B691B68BB
:103FD000894A934204D07B691B6AFA6A1343FB62E5
:103FE0007B691B689B6823F06E4323F430637A6916
:103FF0001268F96A0B4393607B691B68DB6A23F0E4
:104000000F017B695A6A7B691B680A43DA627B6924
:104010001B687A4A934227D10320FFF7B3FE034679
:10402000A3F54033032B1BD801A252F823F000BFA5
:10403000414000085140000849400008594000082C
:10404000012387F82B3080E0022387F82B307CE0B7
:10405000042387F82B3078E0082387F82B3074E0AE
:10406000102387F82B3070E07B691B68644A934209
:1040700038D10C20FFF786FE0346A3F540230C2B16
:104080002CD801A252F823F0BD400008DD40000802
:10409000DD400008DD400008CD400008DD4000089C
:1040A000DD400008DD400008C5400008DD40000894
:1040B000DD400008DD400008D5400008002387F8F7
:1040C0002B3042E0022387F82B303EE0042387F8B0
:1040D0002B303AE0082387F82B3036E0102387F89E
:1040E0002B3032E07B691B68434A93422AD14FF45C
:1040F0004060FFF759FE0346B3F5406F1AD0B3F5A1
:10410000406F1BD8B3F5006F0CD0B3F5006F15D816
:10411000002B03D0B3F5806F08D00FE0002387F8A1
:104120002B3012E0022387F82B300EE0042387F8AF
:104130002B300AE0082387F82B3006E0102387F89D
:104140002B3002E0102387F82B307B691B682A4A4A
:10415000934240F0A48097F82B30082B23D801A27B
:1041600052F823F089410008A74100089141000856
:10417000A741000897410008A7410008A74100088F
:10418000A74100089F410008FFF718FB786210E084
:104190001C4B7B620DE0FFF75DFA786209E04FF49B
:1041A00000437B6205E000237B62012387F82A300D
:1041B00000BF7B6A002B00F037817B695B6A124A83
:1041C00032F813301A467B6AB3FBF2F3BB617B69AA
:1041D0005A6813465B001344BA699A4205D37B6957
:1041E0005B681B03BA699A4210D9012387F82A3009
:1041F0001AE100BFF369FFCF0080004000380140A2
:10420000004400400024F400CC5900087B6A0022DE
:10421000BB60FA607B695B6A8E4A32F813309BB2EE
:1042200000223B607A60D7E90023D7E90201FBF75F
:10423000F7FF02460B46104619464FF000024FF0BA
:1042400000030B0243EA10630202796949684908D6
:1042500000200C46054612EB040843EB05097B6978
:104260005B6800229A46934652465B464046494662
:10427000FBF7D6FF02460B4613463B623B6AB3F59B
:10428000407F08D33B6AB3F5801F04D27B691B686B
:104290003A6ADA60C8E0012387F82A30C4E07B6913
:1042A000DB69B3F5004F67D197F82B30082B28D87E
:1042B00001A252F823F000BFDD420008E5420008E9
:1042C000ED42000803430008F342000803430008DE
:1042D0000343000803430008FB420008FFF76EFA9F
:1042E000786214E0FFF77CFA786210E05A4B7B6248
:1042F0000DE0FFF7AFF9786209E04FF400437B620D
:1043000005E000237B62012387F82A3000BF7B6A27
:10431000002B00F089807B695B6A4E4A32F81330CB
:104320001A467B6AB3FBF2F35A007B695B685B0851
:104330001A447B695B68B2FBF3F33B623B6A0F2B69
:1043400016D93B6AB3F5803F12D23B6A9BB223F089
:104350000F03FB833B6A5B089BB203F007039AB22F
:10436000FB8B1343FB837B691B68FA8BDA605BE092
:10437000012387F82A3057E097F82B30082B28D8EC
:1043800001A252F823F000BFAD430008B543000876
:10439000BD430008D3430008C3430008D3430008CB
:1043A000D3430008D3430008CB430008FFF706FAC5
:1043B000786214E0FFF714FA786210E0264B7B6213
:1043C0000DE0FFF747F9786209E04FF400437B62A4
:1043D00005E000237B62012387F82A3000BF7B6A57
:1043E000002B21D07B695B6A1A4A32F813301A46D7
:1043F0007B6AB3FBF2F27B695B685B081A447B69FA
:104400005B68B2FBF3F33B623B6A0F2B09D93B6A53
:10441000B3F5803F05D23B6A9AB27B691B68DA60CC
:1044200002E0012387F82A307B690122A3F86A2081
:104430007B690122A3F868207B6900225A677B69A7
:1044400000229A6797F82A3018463037BD46BDE8F3
:10445000B08F00BFCC5900080024F40080B483B0B2
:1044600000AF78607B689B6A03F00803002B0AD0DA
:104470007B681B685B6823F400417B689A6B7B68F0
:104480001B680A435A607B689B6A03F00103002B98
:104490000AD07B681B685B6823F400317B68DA6AAA
:1044A0007B681B680A435A607B689B6A03F00203BF
:1044B000002B0AD07B681B685B6823F480317B6823
:1044C0001A6B7B681B680A435A607B689B6A03F01F
:1044D0000403002B0AD07B681B685B6823F48021EF
:1044E0007B685A6B7B681B680A435A607B689B6ACF
:1044F00003F01003002B0AD07B681B689B6823F431
:1045000080517B68DA6B7B681B680A439A607B6822
:104510009B6A03F02003002B0AD07B681B689B6812
:1045200023F400517B681A6C7B681B680A439A600D
:104530007B689B6A03F04003002B1AD07B681B68E2
:104540005B6823F480117B685A6C7B681B680A43A4
:104550005A607B685B6CB3F5801F0AD17B681B686F
:104560005B6823F4C0017B689A6C7B681B680A4314
:104570005A607B689B6A03F08003002B0AD07B683B
:104580001B685B6823F400217B68DA6C7B681B681E
:104590000A435A6000BF0C37BD4680BC704780B5E7
:1045A00086B002AF78607B680022C3F89020FCF7E9
:1045B0001DFCF8607B681B681B6803F00803082B70
:1045C0000ED16FF07E430093FB6800224FF4001180
:1045D000786800F032F80346002B01D0032328E06E
:1045E0007B681B681B6803F00403042B0ED16FF07B
:1045F0007E430093FB6800224FF48001786800F04E
:104600001CF80346002B01D0032312E07B68202214
:10461000C3F888207B682022C3F88C207B680022A6
:10462000DA667B6800221A677B68002283F88420A0
:10463000002318461037BD4680BD80B59CB000AF42
:10464000F860B9603B601346FB71AFE0BB6FB3F13C
:10465000FF3F00F0AB80FCF7C9FB02463B68D31A72
:10466000BA6F9A4202D3BB6F002B40D1FB681B6824
:104670003B653B6D53E8003FFB64FB6C23F4D07358
:104680007B66FB681B681A467B6EFB65BA65B96D75
:10469000FA6D41E800237B657B6D002BE6D1FB685A
:1046A0001B680833FB63FB6B53E8003FBB63BB6BCA
:1046B00023F001033B66FB681B6808333A6EBA645B
:1046C0007B64796CBA6C41E800233B643B6C002B43
:1046D000E5D1FB682022C3F88820FB682022C3F8BC
:1046E0008C20FB68002283F8842003236FE0FB68A2
:1046F0001B681B6803F00403002B57D0BB68802B9A
:1047000054D0BB68402B51D0FB681B68DB6903F4B5
:104710000063B3F5006F49D1FB681B684FF400627A
:104720001A62FB681B68BB62BB6A53E8003F7B628E
:104730007B6A23F4D073FB66FB681B681A46FB6E2A
:104740007B633A63396B7A6B41E80023FB62FB6A57
:10475000002BE6D1FB681B6808337B617B6953E85B
:10476000003F3B613B6923F00103BB66FB681B68AC
:104770000833BA6E3A62FB61F9693A6A41E800238C
:10478000BB61BB69002BE5D1FB682022C3F8882000
:10479000FB682022C3F88C20FB682022C3F89020FD
:1047A000FB68002283F88420032310E0FB681B6869
:1047B000DA69BB681340BA689A420CBF0123002330
:1047C000DBB21A46FB799A423FF440AF0023184609
:1047D0007037BD4680BD80B485B000AF78607B681F
:1047E00093F88430012B01D1022327E07B6801225A
:1047F00083F884207B682422C3F888207B681B68A8
:104800001B68FB607B681B681A687B681B6822F06A
:1048100001021A60FB6823F00053FB607B680022F2
:104820005A667B681B68FA681A607B682022C3F8A6
:1048300088207B68002283F88420002318461437E0
:10484000BD4680BC704780B584B000AF78603960E9
:104850007B6893F88430012B01D102232DE07B6823
:10486000012283F884207B682422C3F888207B6897
:104870001B681B68FB607B681B681A687B681B6889
:1048800022F001021A607B681B689B6823F060417C
:104890007B681B683A680A439A60786800F050F8B1
:1048A0007B681B68FA681A607B682022C3F888203E
:1048B0007B68002283F88420002318461037BD4609
:1048C00080BD80B584B000AF786039607B6893F8B4
:1048D0008430012B01D102232DE07B68012283F873
:1048E00084207B682422C3F888207B681B681B68AF
:1048F000FB607B681B681A687B681B6822F00102FA
:104900001A607B681B689B6823F060617B681B688A
:104910003A680A439A60786800F012F87B681B686E
:10492000FA681A607B682022C3F888207B6800221E
:1049300083F88420002318461037BD4680BD000050
:1049400080B485B000AF78607B685B6E002B08D1C7
:104950007B680122A3F86A207B680122A3F8682003
:1049600031E00823FB730823BB737B681B689B68DB
:104970005B0EDBB203F007037B737B681B689B68ED
:104980005B0FDBB203F007033B73BB7B3A7B104941
:104990008A5C02FB03F33A7B0E498A5C93FBF2F3D9
:1049A0009AB27B68A3F86A20FB7B7A7B08498A5C11
:1049B00002FB03F37A7B07498A5C93FBF2F39AB21A
:1049C0007B68A3F8682000BF1437BD4680BC7047E1
:1049D000E4590008EC590008002310B50446C0E96A
:1049E0000033C0E90433836081814366C2818361FF
:1049F000194608225C3000F021F90D4B63620D4B23
:104A0000A3620D4BE3620D4B23630D4B24629C426A
:104A100006D003F16802944202D0D0339C4205D103
:104A200004F15800BDE8104000F03AB910BD00BFD5
:104A3000ED5400080F550008475500086B55000855
:104A4000E8D10020024A0349034800F069B800BFDA
:104A50000C000020855400081C00002041680C4B0D
:104A6000994210B5044601D000F00CFDA168094B35
:104A7000994202D0204600F005FDE168064B9942BC
:104A800004D02046BDE8104000F0FCBC10BD00BFC3
:104A9000E8D1002050D20020B8D2002010B50B4B36
:104AA0000B4C0C4A1A60204600220421FFF794FFA9
:104AB00004F1680001220921FFF78EFF04F1D00004
:104AC0000222BDE810401221FFF786BF20D300204C
:104AD000E8D10020454A0008014800F0E2B800BFD4
:104AE00025D30020014800F0DDB800BF25D3002009
:104AF00010B50446FFF7F0FF236A1BB1BDE8104074
:104B0000FFF7F0BF044B2362044B1B68002BF5D169
:104B1000FFF7C4FFF2E700BF5D4A000820D3002082
:104B20002DE9F8430746884614460026D4E9019546
:104B3000B9F1010905D52468002CF7D13046BDE84C
:104B4000F883AB89012B07D9B5F90E30013303D0B7
:104B500029463846C04706436835E9E70FB407B52C
:104B6000064904AB086853F8042B8168019300F0F0
:104B7000C1F803B05DF804EB04B0704718000020E2
:104B8000036A70B5846805460E460BB9FFF7B0FF9F
:104B9000636EDB0705D4A389980502D4A06D00F0ED
:104BA00080F8A389190702D52369002B35D1214646
:104BB000284600F01DFD80B34FF0FF35636EDA0725
:104BC00005D4A3899B0502D4A06D00F06BF828469C
:104BD00070BD002B04DAA2699A4217DC0A2915D0AD
:104BE00023685A1C22601970A36816F8011F013B44
:104BF000A3600029EDD1002B11DA22460A212846B4
:104C000000F0B7FC0130D7D00A25D7E72246284666
:104C100000F0AFFC0130E7D1CEE7013EE4E72368C6
:104C20005A1C22600A221A70EEE70000024B01466D
:104C30001868FFF7A5BF00BF180000200244034614
:104C4000934200D1704703F8011BF9E7014B186844
:104C5000704700BF1800002070B50D4D0D4C641B4F
:104C6000A4100026A64209D10B4D0C4C00F03AFED0
:104C7000641BA4100026A64205D170BD55F8043B64
:104C800098470136EEE755F8043B98470136F2E7BE
:104C9000305A0008305A0008305A0008345A0008C8
:104CA0007047704770479368013B002B10B49360C6
:104CB00007DA9469A34201DB0A2902D110BC00F093
:104CC00058BC1368581C10601970084610BC704717
:104CD000F8B506460F461446D518AC4201D100205F
:104CE00007E014F8011B3A463046FFF7DCFF431C8F
:104CF000F3D1F8BD2DE9F04F0D469DB0144698460E
:104D0000064618B1036A0BB9FFF7F2FE6B6ED907BE
:104D100005D4AB899A0502D4A86DFFF7C2FFAB8911
:104D20001B0701D52B699BB92946304600F060FC72
:104D300070B16B6EDC0704D54FF0FF301DB0BDE8DD
:104D4000F08FAB899805F7D4A86DFFF7ABFFF3E7B9
:104D50000023099320238DF82930CDF80C803023CF
:104D6000DFF8AC818DF82A304FF0010923469A46CE
:104D700013F8012B0AB1252AF9D1BAEB040B0BD099
:104D80005B46224629463046FFF7A2FF013000F07D
:104D9000A780099A5A4409929AF80030002B00F033
:104DA0009F8000234FF0FF32CDE905230AF1010A6D
:104DB000049307938DF853301A935446052214F840
:104DC000011B5348FBF7DCF9049AD8B9D10644BF5C
:104DD00020238DF85330130744BF2B238DF8533015
:104DE0009AF800302A2B15D0079A544600204FF02D
:104DF0000A0C214611F8013B303B092B4BD9B0B1CD
:104E0000079214E0A0EB080309FA03F31343049399
:104E1000A246D2E7039B191D1B680391002BBBBF61
:104E20005B4242F0020207930793B8BF04922378D3
:104E30002E2B0AD163782A2B32D1039B1A1D1B68B3
:104E4000039243EAE37302340593DFF8C8A02178A4
:104E500003225046FBF794F938B1049BA0EB0A00FB
:104E60004022824013430134049314F8011B2A4862
:104E70008DF828100622FBF783F900283FD0274B36
:104E80001BBB039B073323F0070308330393099BE2
:104E90003B4409936AE70CFB02320C460120A8E769
:104EA00000230134059319464FF00A0C204610F8F0
:104EB000012B303A092A03D9002BC6D00591C4E74B
:104EC0000CFB012104460123F0E703AB00932A46C3
:104ED000134B04A93046AFF300800746781CD6D1A7
:104EE0006B6ED90705D4AB899A0502D4A86DFFF77C
:104EF000D9FEAB895B063FF51FAF09981EE703ABF0
:104F000000932A46064B04A9304600F01BF9E4E75B
:104F1000F4590008FA590008FE5900080000000082
:104F2000D14C000870B50F4E0C463168054611B9DA
:104F300000F06CFC30602146284600F067FC431C02
:104F400003D14FF0FF34204670BDC41C24F003048D
:104F5000A042F8D0211A284600F058FC0130F2D1C6
:104F6000EFE700BF28D300202DE9F843CD1C25F042
:104F7000030508350C2D38BF0C25002D064601DB36
:104F8000A94204D90C2333600020BDE8F883DFF880
:104F9000D48000F09FFAD8F800301C4644BB294664
:104FA0003046FFF7BFFF431C044658D1D8F80040F5
:104FB0002746002F43D1002C4BD02368394630467A
:104FC00004EB030900F022FC814542D121686D1AEF
:104FD00029463046FFF7A6FF01303AD023682B441C
:104FE0002360D8F800305A6862BBC8F800700FE040
:104FF0002268521B20D40B2A17D96119A3422560BD
:1050000018BF5960636808BFC8F8001062514B6050
:10501000304600F065FA04F10B00231D20F0070074
:10502000C21A1CBF1B1AA350AFE76268A3420CBF91
:10503000C8F800205A60EBE723466468AEE73C46B8
:105040007F68B6E71A465B68A342FBD10023536032
:10505000DEE70C233360304600F042FA94E7056047
:10506000D6E700BF2CD300202DE9F047164698461E
:105070008A680B69DDF820909342B8BF134633600D
:1050800091F8432007460C460AB101333360236888
:10509000990642BF336802333360256815F0060570
:1050A00006D104F1190AE36832689B1AAB4226DC88
:1050B00094F843302268003B18BF012392062BD49A
:1050C00004F1430241463846C84701301ED02368E8
:1050D000226903F00603042B02BFE5683368ED1A6A
:1050E000A3680CBF25EAE57500259342C4BF9B1A4F
:1050F000ED1800261A34B5421AD1002008E0012329
:10510000524641463846C847013003D14FF0FF3080
:10511000BDE8F0870135C6E7E1185A1C302081F858
:105120004300224494F8451082F843100233C7E745
:105130000123224641463846C8470130E6D00136B1
:10514000D9E700002DE9FF470F7E0C9E782F91468E
:1051500080460C469A4601F1430207D8622F0AD8CE
:10516000002F00F0D280582F00F0B98004F14206E1
:1051700084F842703AE0A7F16303152BF6D801A139
:1051800051F823F0DD510008F15100086D5100087D
:105190006D5100086D5100086D510008F151000873
:1051A0006D5100086D5100086D5100086D510008E7
:1051B000F15200081B520008AB5200086D51000864
:1051C0006D510008135300086D5100081B52000870
:1051D0006D5100086D510008B352000833681A1D64
:1051E0001B68326004F1420684F8423001239DE0DE
:1051F00033682068191D3160060601D51D6803E07B
:105200004506FBD5B3F90050002D03DA2D236D427E
:1052100084F8433059480A2311E0216833680806AE
:1052200053F8045B02D4490648BFADB26F2F534810
:10523000336014BF0A230823002184F843106668F2
:10524000A660002EA2BF216821F0040121600DB9E3
:10525000002E4BD01646B5FBF3F103FB1157C75D8B
:1052600006F8017D2F46BB420D46F4D9082B0BD121
:105270002368DF0708D5236961689942DEBF3023C0
:1052800006F8013C06F1FF36921B2261CDF800A022
:105290004B4603AA21464046FFF7E6FE01304AD1BD
:1052A0004FF0FF3004B0BDE8F087236843F02003DF
:1052B00023603348782784F84570236831681F06D7
:1052C00051F8045B02D45F0648BFADB23160D90724
:1052D00044BF43F0200323601DB11023ACE72748EF
:1052E000E9E7236823F020032360F6E71646BDE7CD
:1052F000336825686169181D30602E061B6801D56A
:10530000196002E06806FBD5198000232361164668
:10531000BCE733681A1D32601E686268002130469F
:10532000FAF72EFF08B1801B6060636823610023D9
:1053300084F84330AAE72369324649464046D047BD
:105340000130ADD023689B0713D4E068039B9842DB
:10535000B8BF1846A6E70123324649464046D04723
:1053600001309DD00135E36803995B1AAB42F2DC52
:10537000EBE7002504F11906F5E700BF055A000820
:10538000165A0008B1F90C20F8B5160705460C4668
:1053900054D44B68002B02DC0B6C002B48DDE66A12
:1053A000002E45D0002312F480522F68216A2B6012
:1053B00030D0626DA389590705D56368D21A636B33
:1053C0000BB1236CD21A0023E66A216A2846B04743
:1053D000431CA38906D129681D292BD8284A0A41D4
:1053E000D60727D400226260D9042269226004D53E
:1053F000421C01D12B6803B96065616B2F60B9B1A4
:1054000004F14403994202D0284600F021FA002317
:1054100063630DE001232846B0470246501CC9D102
:105420002B68002BC6D01D2B01D0162B1DD12F6051
:10543000002021E043F040031BB21AE00F69002F67
:10544000F6D093070E6808BF4B690F6018BF0023A2
:10545000F61B8B60002EEBDD216AD4F828C03346A2
:105460003A462846E047002807DCB4F90C3043F000
:105470004003A3814FF0FF30F8BD0744361AE9E737
:10548000FEFFBFDF38B50B6905460C4613B9002592
:10549000284638BD18B1036A0BB9FFF729FBB4F9E8
:1054A0000C30002BF3D0626ED00704D4990502D4DF
:1054B000A06DFFF7F6FB28462146FFF763FF636EFA
:1054C000DA070546E4D4A3899B05E1D4A06DFFF774
:1054D000E9FBDDE70148FFF7E4BB00BF24D3002070
:1054E0000148FFF7DFBB00BF24D3002010B50C46F6
:1054F000B1F90E1000F078F90028ABBF636DA389F5
:105500001B1823F48053ACBF6365A38110BD2DE944
:10551000F0411F468B89DB0505460C46164605D52E
:10552000B1F90E100223002200F04CF9A389B4F95E
:105530000E1023F48053A38132463B462846BDE833
:10554000F04100F073B910B50C46B1F90E1000F03F
:1055500039F9431CA38915BF606523F4805343F4D4
:105560008053A38118BFA38110BDB1F90E1000F0C4
:10557000F7B8F8B50E461446054618B1036A0BB9DC
:10558000FFF7B6FAA369A360A3891A0701D52369B7
:1055900043B92146284600F02BF818B14FF0FF37E9
:1055A0003846F8BD23682269981A6369F6B28342C7
:1055B000374605DC21462846FFF764FF0028EDD179
:1055C000A368013BA36023685A1C22601E706269B5
:1055D000431C9A4204D0A389DB07E1D50A2EDFD110
:1055E00021462846FFF74EFF0028D9D0D6E7000015
:1055F00038B5294B054618680C4618B1036A0BB933
:10560000FFF776FAB4F90C30190722D4DA0607D47A
:1056100009222A6043F04003A3814FF0FF3033E0BA
:10562000580712D5616B41B104F14403994202D08D
:10563000284600F00DF900236363A38923F02403B7
:10564000A3810023636023692360A38943F00803D7
:10565000A38123694BB9A38903F42073B3F5007FB9
:1056600003D02146284600F03FF8B4F90C3013F07F
:1056700001020AD00022A26062695242A26122693C
:1056800042B913F08000C5D138BD990758BF62698F
:10569000A260F4E70020F7E71800002070B50C4680
:1056A000B1F90E10002996B015461E460DDAA389F1
:1056B00013F0800F4FF0000114BF40234FF48063BC
:1056C000002031602B6016B070BD6A4600F058F8BB
:1056D0000028ECDB019901F47041A1F50053594217
:1056E00059414FF48063EBE78B89F7B59D07064678
:1056F0000C4607D504F1470323602361012363614E
:1057000003B0F0BD01AB6A46FFF7C8FF009F054636
:1057100039463046FFF728FC48B9B4F90C309A05F1
:10572000EED423F0030343F00203A381E2E7A3894D
:10573000206043F08003A381019BC4E904075BB1AF
:10574000B4F90E10304600F02DF828B1A38923F0EB
:10575000030343F00103A381A3891D43A581CFE780
:1057600038B5064D0023044608462B60FBF73BFA8C
:10577000431C02D12B6803B1236038BD30D3002015
:1057800038B5074D00230446084611462B60FBF749
:1057900035FA431C02D12B6803B1236038BD00BF2A
:1057A00030D3002038B5064D0023044608462B6050
:1057B000FBF733FA431C02D12B6803B1236038BDD9
:1057C00030D3002038B5074D044608461146002264
:1057D0002A601A46FBF72BFA431C02D12B6803B14F
:1057E000236038BD30D3002038B5074D0446084645
:1057F000114600222A601A46FBF7BCF9431C02D16D
:105800002B6803B1236038BD30D3002038B5064D76
:105810000023044608462B60FBF716FA431C02D10E
:105820002B6803B1236038BD30D3002038B5074D55
:1058300004460846114600222A601A46FBF7B7F9CB
:10584000431C02D12B6803B1236038BD30D3002044
:1058500038B50546002941D051F8043C0C1F002BF7
:10586000B8BFE418FFF736FE1D4A136833B963600A
:1058700014602846BDE83840FFF732BEA34208D97D
:10588000206821188B4201BF19685B6809182160E4
:10589000EDE71A465B680BB1A342FAD911685018BC
:1058A000A0420BD120680144501883421160E0D11E
:1058B00018685B68536008441060DAE702D90C236B
:1058C0002B60D6E7206821188B4204BF19685B68FB
:1058D000636004BF091821605460CAE738BD00BF87
:1058E0002CD30020F8B500BFF8BC08BC9E4670471A
:0C58F000F8B500BFF8BC08BC9E4670472D
:1058FC0053544152540000002568750A0000000002
:10590C00454E4400120024003000000006000C003C
:10591C001000000000000000010000000200000068
:10592C000100000003000000050000000100000061
:10593C0001000000060000000A000000200000002A
:10594C00020000000400000008000000100000002D
:10595C004000000080000000000100000002000078
:10596C00000000000000000000000000000000002B
:10597C000100000002000000030000000400000011
:10598C00A0860100400D0300801A060000350C00B3
:10599C0040420F0080841E0000093D0000127A0076
:1059AC000024F40000366E010048E801006CDC02B3
:1059BC0000000000000000000000000000000000DB
:1059CC00010002000400060008000A000C00100090
:1059DC0020004000800000010101010307010000CC
:1059EC000804020408010101232D302B2000686CEF
:1059FC004C006566674546470030313233343536E6
:105A0C00373839414243444546003031323334351E
:0C5A1C003637383961626364656600004B
:085A280058A7FF7F01000000F8
:045A30006501000804
:045A34004101000824
:105A380000093D0010000000010000000000000007
:105A480003000000E8D100201C0000200000000036
:105A5800E8D1002050D20020B8D200200000000079
:105A6800000000000000000000000000000000002E
:105A7800000000000000000000000000000000001E
:105A8800000000000000000000000000000000000E
:085A9800000000000000000006
:0400000508000CC122
:00000001FF
